{
  "contractName": "ArbitrageBot",
  "abi": [
    {
      "inputs": [
        {
          "internalType": "contract ISwapRouter",
          "name": "_Router1",
          "type": "address"
        },
        {
          "internalType": "address",
          "name": "_Router2",
          "type": "address"
        }
      ],
      "stateMutability": "nonpayable",
      "type": "constructor"
    },
    {
      "anonymous": false,
      "inputs": [
        {
          "indexed": false,
          "internalType": "string",
          "name": "assest",
          "type": "string"
        },
        {
          "indexed": false,
          "internalType": "string",
          "name": "base",
          "type": "string"
        },
        {
          "indexed": false,
          "internalType": "uint256",
          "name": "profit",
          "type": "uint256"
        },
        {
          "indexed": false,
          "internalType": "bool",
          "name": "success",
          "type": "bool"
        }
      ],
      "name": "TradeSucces",
      "type": "event"
    },
    {
      "inputs": [],
      "name": "Router2",
      "outputs": [
        {
          "internalType": "address",
          "name": "",
          "type": "address"
        }
      ],
      "stateMutability": "view",
      "type": "function"
    },
    {
      "inputs": [],
      "name": "name",
      "outputs": [
        {
          "internalType": "string",
          "name": "",
          "type": "string"
        }
      ],
      "stateMutability": "view",
      "type": "function"
    },
    {
      "inputs": [],
      "name": "owner",
      "outputs": [
        {
          "internalType": "address",
          "name": "",
          "type": "address"
        }
      ],
      "stateMutability": "view",
      "type": "function"
    },
    {
      "inputs": [],
      "name": "poolFee",
      "outputs": [
        {
          "internalType": "uint24",
          "name": "",
          "type": "uint24"
        }
      ],
      "stateMutability": "view",
      "type": "function"
    },
    {
      "inputs": [],
      "name": "swapRouter",
      "outputs": [
        {
          "internalType": "contract ISwapRouter",
          "name": "",
          "type": "address"
        }
      ],
      "stateMutability": "view",
      "type": "function"
    },
    {
      "stateMutability": "payable",
      "type": "receive"
    },
    {
      "inputs": [
        {
          "internalType": "address",
          "name": "_router",
          "type": "address"
        },
        {
          "internalType": "address",
          "name": "_token1",
          "type": "address"
        },
        {
          "internalType": "address",
          "name": "_token2",
          "type": "address"
        },
        {
          "internalType": "uint256",
          "name": "_amount",
          "type": "uint256"
        }
      ],
      "name": "getAmountOutMin",
      "outputs": [
        {
          "internalType": "uint256",
          "name": "",
          "type": "uint256"
        }
      ],
      "stateMutability": "view",
      "type": "function"
    },
    {
      "inputs": [
        {
          "internalType": "address",
          "name": "_pairAddress",
          "type": "address"
        }
      ],
      "name": "getSushiswapReserve",
      "outputs": [
        {
          "internalType": "uint256",
          "name": "",
          "type": "uint256"
        },
        {
          "internalType": "uint256",
          "name": "",
          "type": "uint256"
        },
        {
          "internalType": "uint256",
          "name": "",
          "type": "uint256"
        }
      ],
      "stateMutability": "view",
      "type": "function"
    },
    {
      "inputs": [
        {
          "internalType": "address",
          "name": "_token1",
          "type": "address"
        },
        {
          "internalType": "address",
          "name": "_token2",
          "type": "address"
        }
      ],
      "name": "UniswapToSushiwapTrade",
      "outputs": [],
      "stateMutability": "nonpayable",
      "type": "function"
    },
    {
      "inputs": [
        {
          "internalType": "address",
          "name": "_token1",
          "type": "address"
        },
        {
          "internalType": "address",
          "name": "_token2",
          "type": "address"
        }
      ],
      "name": "SushiwapToUniswapTrade",
      "outputs": [],
      "stateMutability": "nonpayable",
      "type": "function"
    },
    {
      "inputs": [
        {
          "internalType": "address",
          "name": "_tokenContractAddress",
          "type": "address"
        }
      ],
      "name": "getBalance",
      "outputs": [
        {
          "internalType": "uint256",
          "name": "",
          "type": "uint256"
        }
      ],
      "stateMutability": "view",
      "type": "function"
    },
    {
      "inputs": [],
      "name": "recoverEth",
      "outputs": [],
      "stateMutability": "nonpayable",
      "type": "function"
    },
    {
      "inputs": [
        {
          "internalType": "address",
          "name": "tokenAddress",
          "type": "address"
        }
      ],
      "name": "recoverTokens",
      "outputs": [],
      "stateMutability": "nonpayable",
      "type": "function"
    }
  ],
  "bytecode": "0x60806040523480156200001157600080fd5b5060405162002a0b38038062002a0b8339818101604052810190620000379190620001f8565b81600160006101000a81548173ffffffffffffffffffffffffffffffffffffffff021916908373ffffffffffffffffffffffffffffffffffffffff16021790555080600260006101000a81548173ffffffffffffffffffffffffffffffffffffffff021916908373ffffffffffffffffffffffffffffffffffffffff1602179055506040518060400160405280600d81526020017f41726269747261676520426f740000000000000000000000000000000000000081525060009081620000ff9190620004b9565b5033600560006101000a81548173ffffffffffffffffffffffffffffffffffffffff021916908373ffffffffffffffffffffffffffffffffffffffff1602179055505050620005a0565b600080fd5b600073ffffffffffffffffffffffffffffffffffffffff82169050919050565b60006200017b826200014e565b9050919050565b60006200018f826200016e565b9050919050565b620001a18162000182565b8114620001ad57600080fd5b50565b600081519050620001c18162000196565b92915050565b620001d2816200016e565b8114620001de57600080fd5b50565b600081519050620001f281620001c7565b92915050565b6000806040838503121562000212576200021162000149565b5b60006200022285828601620001b0565b92505060206200023585828601620001e1565b9150509250929050565b600081519050919050565b7f4e487b7100000000000000000000000000000000000000000000000000000000600052604160045260246000fd5b7f4e487b7100000000000000000000000000000000000000000000000000000000600052602260045260246000fd5b60006002820490506001821680620002c157607f821691505b602082108103620002d757620002d662000279565b5b50919050565b60008190508160005260206000209050919050565b60006020601f8301049050919050565b600082821b905092915050565b600060088302620003417fffffffffffffffffffffffffffffffffffffffffffffffffffffffffffffffff8262000302565b6200034d868362000302565b95508019841693508086168417925050509392505050565b6000819050919050565b6000819050919050565b60006200039a620003946200038e8462000365565b6200036f565b62000365565b9050919050565b6000819050919050565b620003b68362000379565b620003ce620003c582620003a1565b8484546200030f565b825550505050565b600090565b620003e5620003d6565b620003f2818484620003ab565b505050565b5b818110156200041a576200040e600082620003db565b600181019050620003f8565b5050565b601f82111562000469576200043381620002dd565b6200043e84620002f2565b810160208510156200044e578190505b620004666200045d85620002f2565b830182620003f7565b50505b505050565b600082821c905092915050565b60006200048e600019846008026200046e565b1980831691505092915050565b6000620004a983836200047b565b9150826002028217905092915050565b620004c4826200023f565b67ffffffffffffffff811115620004e057620004df6200024a565b5b620004ec8254620002a8565b620004f98282856200041e565b600060209050601f8311600181146200053157600084156200051c578287015190505b6200052885826200049b565b86555062000598565b601f1984166200054186620002dd565b60005b828110156200056b5784890151825560018201915060208501945060208101905062000544565b868310156200058b578489015162000587601f8916826200047b565b8355505b6001600288020188555050505b505050505050565b61245b80620005b06000396000f3fe6080604052600436106100ab5760003560e01c806343cf6f241161006457806343cf6f241461021e5780638da5cb5b1461025b578063a3386b0314610286578063bcdb446b146102af578063c31c9c07146102c6578063f8b2cb4f146102f157610107565b806306fdde031461010c578063089fe6aa146101375780630dff5ed51461016257806316114acd146101a1578063314e04f3146101ca57806331fa58d4146101f357610107565b366101075734600760003373ffffffffffffffffffffffffffffffffffffffff1673ffffffffffffffffffffffffffffffffffffffff16815260200190815260200160002060008282546100ff919061179a565b925050819055005b600080fd5b34801561011857600080fd5b5061012161032e565b60405161012e919061185e565b60405180910390f35b34801561014357600080fd5b5061014c6103bc565b604051610159919061189e565b60405180910390f35b34801561016e57600080fd5b506101896004803603810190610184919061192b565b6103c2565b60405161019893929190611967565b60405180910390f35b3480156101ad57600080fd5b506101c860048036038101906101c3919061192b565b610479565b005b3480156101d657600080fd5b506101f160048036038101906101ec919061199e565b61060a565b005b3480156101ff57600080fd5b5061020861095c565b60405161021591906119ed565b60405180910390f35b34801561022a57600080fd5b5061024560048036038101906102409190611a34565b610982565b6040516102529190611a9b565b60405180910390f35b34801561026757600080fd5b50610270610b29565b60405161027d91906119ed565b60405180910390f35b34801561029257600080fd5b506102ad60048036038101906102a8919061199e565b610b4f565b005b3480156102bb57600080fd5b506102c4610ea1565b005b3480156102d257600080fd5b506102db610f7a565b6040516102e89190611b15565b60405180910390f35b3480156102fd57600080fd5b506103186004803603810190610313919061192b565b610fa0565b6040516103259190611a9b565b60405180910390f35b6000805461033b90611b5f565b80601f016020809104026020016040519081016040528092919081815260200182805461036790611b5f565b80156103b45780601f10610389576101008083540402835291602001916103b4565b820191906000526020600020905b81548152906001019060200180831161039757829003601f168201915b505050505081565b610bb881565b6000806000806000808673ffffffffffffffffffffffffffffffffffffffff16630902f1ac6040518163ffffffff1660e01b8152600401606060405180830381865afa158015610416573d6000803e3d6000fd5b505050506040513d601f19601f8201168201806040525081019061043a9190611c12565b63ffffffff1692506dffffffffffffffffffffffffffff1692506dffffffffffffffffffffffffffff1692508282829550955095505050509193909250565b600560009054906101000a900473ffffffffffffffffffffffffffffffffffffffff1673ffffffffffffffffffffffffffffffffffffffff163373ffffffffffffffffffffffffffffffffffffffff1614610509576040517f08c379a000000000000000000000000000000000000000000000000000000000815260040161050090611c8b565b60405180910390fd5b60008190508073ffffffffffffffffffffffffffffffffffffffff1663a9059cbb338373ffffffffffffffffffffffffffffffffffffffff166370a08231306040518263ffffffff1660e01b815260040161056491906119ed565b602060405180830381865afa158015610581573d6000803e3d6000fd5b505050506040513d601f19601f820116820180604052508101906105a59190611cc0565b6040518363ffffffff1660e01b81526004016105c2929190611ced565b6020604051808303816000875af11580156105e1573d6000803e3d6000fd5b505050506040513d601f19601f820116820180604052508101906106059190611d4e565b505050565b600560009054906101000a900473ffffffffffffffffffffffffffffffffffffffff1673ffffffffffffffffffffffffffffffffffffffff163373ffffffffffffffffffffffffffffffffffffffff161461069a576040517f08c379a000000000000000000000000000000000000000000000000000000000815260040161069190611c8b565b60405180910390fd5b60008273ffffffffffffffffffffffffffffffffffffffff166370a08231306040518263ffffffff1660e01b81526004016106d591906119ed565b602060405180830381865afa1580156106f2573d6000803e3d6000fd5b505050506040513d601f19601f820116820180604052508101906107169190611cc0565b905060008273ffffffffffffffffffffffffffffffffffffffff166370a08231306040518263ffffffff1660e01b815260040161075391906119ed565b602060405180830381865afa158015610770573d6000803e3d6000fd5b505050506040513d601f19601f820116820180604052508101906107949190611cc0565b90506107c4600160009054906101000a900473ffffffffffffffffffffffffffffffffffffffff16858585611028565b5060008373ffffffffffffffffffffffffffffffffffffffff166370a08231306040518263ffffffff1660e01b815260040161080091906119ed565b602060405180830381865afa15801561081d573d6000803e3d6000fd5b505050506040513d601f19601f820116820180604052508101906108419190611cc0565b9050600082826108519190611d7b565b9050610881600260009054906101000a900473ffffffffffffffffffffffffffffffffffffffff168688846111e5565b60008673ffffffffffffffffffffffffffffffffffffffff166370a08231306040518263ffffffff1660e01b81526004016108bc91906119ed565b602060405180830381865afa1580156108d9573d6000803e3d6000fd5b505050506040513d601f19601f820116820180604052508101906108fd9190611cc0565b9050848161090b9190611d7b565b6006819055507f34869f9170b7cd7feed82302929f46dc31417cc806c8bf12091d690b8cb02c1e60046003600654600160405161094b9493929190611e57565b60405180910390a150505050505050565b600260009054906101000a900473ffffffffffffffffffffffffffffffffffffffff1681565b60006060600267ffffffffffffffff8111156109a1576109a0611eaa565b5b6040519080825280602002602001820160405280156109cf5781602001602082028036833780820191505090505b50905084816000815181106109e7576109e6611ed9565b5b602002602001019073ffffffffffffffffffffffffffffffffffffffff16908173ffffffffffffffffffffffffffffffffffffffff16815250508381600181518110610a3657610a35611ed9565b5b602002602001019073ffffffffffffffffffffffffffffffffffffffff16908173ffffffffffffffffffffffffffffffffffffffff168152505060008673ffffffffffffffffffffffffffffffffffffffff1663d06ca61f85846040518363ffffffff1660e01b8152600401610aad929190611fc6565b600060405180830381865afa158015610aca573d6000803e3d6000fd5b505050506040513d6000823e3d601f19601f82011682018060405250810190610af3919061210f565b90508060018351610b049190611d7b565b81518110610b1557610b14611ed9565b5b602002602001015192505050949350505050565b600560009054906101000a900473ffffffffffffffffffffffffffffffffffffffff1681565b600560009054906101000a900473ffffffffffffffffffffffffffffffffffffffff1673ffffffffffffffffffffffffffffffffffffffff163373ffffffffffffffffffffffffffffffffffffffff1614610bdf576040517f08c379a0000000000000000000000000000000000000000000000000000000008152600401610bd690611c8b565b60405180910390fd5b60008273ffffffffffffffffffffffffffffffffffffffff166370a08231306040518263ffffffff1660e01b8152600401610c1a91906119ed565b602060405180830381865afa158015610c37573d6000803e3d6000fd5b505050506040513d601f19601f82011682018060405250810190610c5b9190611cc0565b905060008273ffffffffffffffffffffffffffffffffffffffff166370a08231306040518263ffffffff1660e01b8152600401610c9891906119ed565b602060405180830381865afa158015610cb5573d6000803e3d6000fd5b505050506040513d601f19601f82011682018060405250810190610cd99190611cc0565b9050610d09600260009054906101000a900473ffffffffffffffffffffffffffffffffffffffff168585856113f9565b60008373ffffffffffffffffffffffffffffffffffffffff166370a08231306040518263ffffffff1660e01b8152600401610d4491906119ed565b602060405180830381865afa158015610d61573d6000803e3d6000fd5b505050506040513d601f19601f82011682018060405250810190610d859190611cc0565b905060008282610d959190611d7b565b9050610dc5600160009054906101000a900473ffffffffffffffffffffffffffffffffffffffff16868884611028565b5060008673ffffffffffffffffffffffffffffffffffffffff166370a08231306040518263ffffffff1660e01b8152600401610e0191906119ed565b602060405180830381865afa158015610e1e573d6000803e3d6000fd5b505050506040513d601f19601f82011682018060405250810190610e429190611cc0565b90508481610e509190611d7b565b6006819055507f34869f9170b7cd7feed82302929f46dc31417cc806c8bf12091d690b8cb02c1e600460036006546001604051610e909493929190611e57565b60405180910390a150505050505050565b600560009054906101000a900473ffffffffffffffffffffffffffffffffffffffff1673ffffffffffffffffffffffffffffffffffffffff163373ffffffffffffffffffffffffffffffffffffffff1614610f31576040517f08c379a0000000000000000000000000000000000000000000000000000000008152600401610f2890611c8b565b60405180910390fd5b3373ffffffffffffffffffffffffffffffffffffffff166108fc479081150290604051600060405180830381858888f19350505050158015610f77573d6000803e3d6000fd5b50565b600160009054906101000a900473ffffffffffffffffffffffffffffffffffffffff1681565b6000808273ffffffffffffffffffffffffffffffffffffffff166370a08231306040518263ffffffff1660e01b8152600401610fdc91906119ed565b602060405180830381865afa158015610ff9573d6000803e3d6000fd5b505050506040513d601f19601f8201168201806040525081019061101d9190611cc0565b905080915050919050565b600061103584868461160c565b8373ffffffffffffffffffffffffffffffffffffffff1663dd62ed3e30876040518363ffffffff1660e01b8152600401611070929190612158565b602060405180830381865afa15801561108d573d6000803e3d6000fd5b505050506040513d601f19601f820116820180604052508101906110b19190611cc0565b5060006040518061010001604052808673ffffffffffffffffffffffffffffffffffffffff1681526020018573ffffffffffffffffffffffffffffffffffffffff168152602001610bb862ffffff1681526020013073ffffffffffffffffffffffffffffffffffffffff1681526020016104b04261112f919061179a565b815260200184815260200160008152602001600073ffffffffffffffffffffffffffffffffffffffff1681525090508573ffffffffffffffffffffffffffffffffffffffff1663414bf389826040518263ffffffff1660e01b81526004016111979190612250565b6020604051808303816000875af11580156111b6573d6000803e3d6000fd5b505050506040513d601f19601f820116820180604052508101906111da9190611cc0565b915050949350505050565b8273ffffffffffffffffffffffffffffffffffffffff1663095ea7b385836040518363ffffffff1660e01b8152600401611220929190611ced565b6020604051808303816000875af115801561123f573d6000803e3d6000fd5b505050506040513d601f19601f820116820180604052508101906112639190611d4e565b506060600267ffffffffffffffff81111561128157611280611eaa565b5b6040519080825280602002602001820160405280156112af5781602001602082028036833780820191505090505b50905083816000815181106112c7576112c6611ed9565b5b602002602001019073ffffffffffffffffffffffffffffffffffffffff16908173ffffffffffffffffffffffffffffffffffffffff1681525050828160018151811061131657611315611ed9565b5b602002602001019073ffffffffffffffffffffffffffffffffffffffff16908173ffffffffffffffffffffffffffffffffffffffff16815250508473ffffffffffffffffffffffffffffffffffffffff166338ed17398361137988888888610982565b84306104b042611389919061179a565b6040518663ffffffff1660e01b81526004016113a995949392919061226c565b6000604051808303816000875af11580156113c8573d6000803e3d6000fd5b505050506040513d6000823e3d601f19601f820116820180604052508101906113f1919061210f565b505050505050565b61140483858361160c565b8273ffffffffffffffffffffffffffffffffffffffff1663dd62ed3e30866040518363ffffffff1660e01b815260040161143f929190612158565b602060405180830381865afa15801561145c573d6000803e3d6000fd5b505050506040513d601f19601f820116820180604052508101906114809190611cc0565b506060600267ffffffffffffffff81111561149e5761149d611eaa565b5b6040519080825280602002602001820160405280156114cc5781602001602082028036833780820191505090505b50905083816000815181106114e4576114e3611ed9565b5b602002602001019073ffffffffffffffffffffffffffffffffffffffff16908173ffffffffffffffffffffffffffffffffffffffff1681525050828160018151811061153357611532611ed9565b5b602002602001019073ffffffffffffffffffffffffffffffffffffffff16908173ffffffffffffffffffffffffffffffffffffffff16815250508473ffffffffffffffffffffffffffffffffffffffff166318cbafe583600084306104b04261159c919061179a565b6040518663ffffffff1660e01b81526004016115bc959493929190612301565b6000604051808303816000875af11580156115db573d6000803e3d6000fd5b505050506040513d6000823e3d601f19601f82011682018060405250810190611604919061210f565b505050505050565b6000808473ffffffffffffffffffffffffffffffffffffffff1663095ea7b360e01b8585604051602401611641929190611ced565b604051602081830303815290604052907bffffffffffffffffffffffffffffffffffffffffffffffffffffffff19166020820180517bffffffffffffffffffffffffffffffffffffffffffffffffffffffff83818316178352505050506040516116ab91906123a2565b6000604051808303816000865af19150503d80600081146116e8576040519150601f19603f3d011682016040523d82523d6000602084013e6116ed565b606091505b509150915081801561171b575060008151148061171a5750808060200190518101906117199190611d4e565b5b5b61175a576040517f08c379a000000000000000000000000000000000000000000000000000000000815260040161175190612405565b60405180910390fd5b5050505050565b6000819050919050565b7f4e487b7100000000000000000000000000000000000000000000000000000000600052601160045260246000fd5b60006117a582611761565b91506117b083611761565b92508282019050808211156117c8576117c761176b565b5b92915050565b600081519050919050565b600082825260208201905092915050565b60005b838110156118085780820151818401526020810190506117ed565b60008484015250505050565b6000601f19601f8301169050919050565b6000611830826117ce565b61183a81856117d9565b935061184a8185602086016117ea565b61185381611814565b840191505092915050565b600060208201905081810360008301526118788184611825565b905092915050565b600062ffffff82169050919050565b61189881611880565b82525050565b60006020820190506118b3600083018461188f565b92915050565b6000604051905090565b600080fd5b600080fd5b600073ffffffffffffffffffffffffffffffffffffffff82169050919050565b60006118f8826118cd565b9050919050565b611908816118ed565b811461191357600080fd5b50565b600081359050611925816118ff565b92915050565b600060208284031215611941576119406118c3565b5b600061194f84828501611916565b91505092915050565b61196181611761565b82525050565b600060608201905061197c6000830186611958565b6119896020830185611958565b6119966040830184611958565b949350505050565b600080604083850312156119b5576119b46118c3565b5b60006119c385828601611916565b92505060206119d485828601611916565b9150509250929050565b6119e7816118ed565b82525050565b6000602082019050611a0260008301846119de565b92915050565b611a1181611761565b8114611a1c57600080fd5b50565b600081359050611a2e81611a08565b92915050565b60008060008060808587031215611a4e57611a4d6118c3565b5b6000611a5c87828801611916565b9450506020611a6d87828801611916565b9350506040611a7e87828801611916565b9250506060611a8f87828801611a1f565b91505092959194509250565b6000602082019050611ab06000830184611958565b92915050565b6000819050919050565b6000611adb611ad6611ad1846118cd565b611ab6565b6118cd565b9050919050565b6000611aed82611ac0565b9050919050565b6000611aff82611ae2565b9050919050565b611b0f81611af4565b82525050565b6000602082019050611b2a6000830184611b06565b92915050565b7f4e487b7100000000000000000000000000000000000000000000000000000000600052602260045260246000fd5b60006002820490506001821680611b7757607f821691505b602082108103611b8a57611b89611b30565b5b50919050565b60006dffffffffffffffffffffffffffff82169050919050565b611bb381611b90565b8114611bbe57600080fd5b50565b600081519050611bd081611baa565b92915050565b600063ffffffff82169050919050565b611bef81611bd6565b8114611bfa57600080fd5b50565b600081519050611c0c81611be6565b92915050565b600080600060608486031215611c2b57611c2a6118c3565b5b6000611c3986828701611bc1565b9350506020611c4a86828701611bc1565b9250506040611c5b86828701611bfd565b9150509250925092565b50565b6000611c756000836117d9565b9150611c8082611c65565b600082019050919050565b60006020820190508181036000830152611ca481611c68565b9050919050565b600081519050611cba81611a08565b92915050565b600060208284031215611cd657611cd56118c3565b5b6000611ce484828501611cab565b91505092915050565b6000604082019050611d0260008301856119de565b611d0f6020830184611958565b9392505050565b60008115159050919050565b611d2b81611d16565b8114611d3657600080fd5b50565b600081519050611d4881611d22565b92915050565b600060208284031215611d6457611d636118c3565b5b6000611d7284828501611d39565b91505092915050565b6000611d8682611761565b9150611d9183611761565b9250828203905081811115611da957611da861176b565b5b92915050565b60008190508160005260206000209050919050565b60008154611dd181611b5f565b611ddb81866117d9565b94506001821660008114611df65760018114611e0c57611e3f565b60ff198316865281151560200286019350611e3f565b611e1585611daf565b60005b83811015611e3757815481890152600182019150602081019050611e18565b808801955050505b50505092915050565b611e5181611d16565b82525050565b60006080820190508181036000830152611e718187611dc4565b90508181036020830152611e858186611dc4565b9050611e946040830185611958565b611ea16060830184611e48565b95945050505050565b7f4e487b7100000000000000000000000000000000000000000000000000000000600052604160045260246000fd5b7f4e487b7100000000000000000000000000000000000000000000000000000000600052603260045260246000fd5b600081519050919050565b600082825260208201905092915050565b6000819050602082019050919050565b611f3d816118ed565b82525050565b6000611f4f8383611f34565b60208301905092915050565b6000602082019050919050565b6000611f7382611f08565b611f7d8185611f13565b9350611f8883611f24565b8060005b83811015611fb9578151611fa08882611f43565b9750611fab83611f5b565b925050600181019050611f8c565b5085935050505092915050565b6000604082019050611fdb6000830185611958565b8181036020830152611fed8184611f68565b90509392505050565b600080fd5b61200482611814565b810181811067ffffffffffffffff8211171561202357612022611eaa565b5b80604052505050565b60006120366118b9565b90506120428282611ffb565b919050565b600067ffffffffffffffff82111561206257612061611eaa565b5b602082029050602081019050919050565b600080fd5b600061208b61208684612047565b61202c565b905080838252602082019050602084028301858111156120ae576120ad612073565b5b835b818110156120d757806120c38882611cab565b8452602084019350506020810190506120b0565b5050509392505050565b600082601f8301126120f6576120f5611ff6565b5b8151612106848260208601612078565b91505092915050565b600060208284031215612125576121246118c3565b5b600082015167ffffffffffffffff811115612143576121426118c8565b5b61214f848285016120e1565b91505092915050565b600060408201905061216d60008301856119de565b61217a60208301846119de565b9392505050565b61218a81611880565b82525050565b61219981611761565b82525050565b6121a8816118cd565b82525050565b610100820160008201516121c56000850182611f34565b5060208201516121d86020850182611f34565b5060408201516121eb6040850182612181565b5060608201516121fe6060850182611f34565b5060808201516122116080850182612190565b5060a082015161222460a0850182612190565b5060c082015161223760c0850182612190565b5060e082015161224a60e085018261219f565b50505050565b60006101008201905061226660008301846121ae565b92915050565b600060a0820190506122816000830188611958565b61228e6020830187611958565b81810360408301526122a08186611f68565b90506122af60608301856119de565b6122bc6080830184611958565b9695505050505050565b6000819050919050565b60006122eb6122e66122e1846122c6565b611ab6565b611761565b9050919050565b6122fb816122d0565b82525050565b600060a0820190506123166000830188611958565b61232360208301876122f2565b81810360408301526123358186611f68565b905061234460608301856119de565b6123516080830184611958565b9695505050505050565b600081519050919050565b600081905092915050565b600061237c8261235b565b6123868185612366565b93506123968185602086016117ea565b80840191505092915050565b60006123ae8284612371565b915081905092915050565b7f5341000000000000000000000000000000000000000000000000000000000000600082015250565b60006123ef6002836117d9565b91506123fa826123b9565b602082019050919050565b6000602082019050818103600083015261241e816123e2565b905091905056fea2646970667358221220036ecde9af1c52e0f55afbbcf1a914e018d7047b78dfdc2e19cff4f4817615d564736f6c63430008100033",
  "immutableReferences": {},
  "source": "//SPDX-License-Identifier: UNLICENSED\r\npragma solidity >=0.7.0 <0.9.0;\r\npragma abicoder v2;\r\n\r\n\r\nimport \"@uniswap/v3-core/contracts/interfaces/pool/IUniswapV3PoolImmutables.sol\";\r\nimport '@uniswap/v3-periphery/contracts/interfaces/ISwapRouter.sol';\r\nimport '@uniswap/v3-periphery/contracts/libraries/TransferHelper.sol';\r\nimport  '@uniswap/v2-periphery/contracts/interfaces/IUniswapV2Router02.sol';\r\nimport '@uniswap/v2-core/contracts/interfaces/IUniswapV2Pair.sol';\r\nimport '@uniswap/v2-periphery/contracts/interfaces/IUniswapV2Router01.sol';\r\nimport '@uniswap/v2-core/contracts/interfaces/IUniswapV2Factory.sol';\r\nimport \"@uniswap/v3-core/contracts/interfaces/IERC20Minimal.sol\";\r\nimport \"@uniswap/v2-core/contracts/interfaces/IUniswapV2Pair.sol\";\r\n\r\ncontract ArbitrageBot {\r\n  string public name;\r\n  ISwapRouter public swapRouter;\r\n  address public Router2;\r\n \r\n\r\n\r\n    uint constant deadline = 20 minutes; // transaction deadline\r\n   \r\n    string base;\r\n    string assest;\r\n    address public owner;\r\n    uint profit;\r\n\r\n    \r\n  // For this example, we will set the pool fee to 0.3%.\r\n  uint24 public constant poolFee = 3000;\r\n\r\n  \r\n     event TradeSucces(\r\n          string assest,\r\n          string base,\r\n          uint profit,\r\n          bool success\r\n     );\r\n\r\n\r\n      mapping(address => uint) _balance;\r\n      \r\n     \r\n\r\n\r\n  constructor( ISwapRouter _Router1, address _Router2) {\r\n      swapRouter = _Router1;\r\n      Router2 = _Router2;\r\n      name=\"Arbitrage Bot\";\r\n     \r\n      owner=msg.sender;\r\n\r\n  }\r\n   modifier onlyOwner(){\r\n      require(msg.sender==owner,\"\");\r\n          _;\r\n     }\r\n\r\n   function getAmountOutMin( address _router,address _token1, address _token2, uint256 _amount)  public view returns (uint256) {\r\n\t      \taddress[] memory path;\r\n\t      \tpath = new address[](2);\r\n\t      \tpath[0] = _token1;\r\n\t      \tpath[1] = _token2;\r\n\t      \tuint256[] memory amountOutMins = IUniswapV2Router02(address(_router)).getAmountsOut(_amount, path);\r\n\t      \t\r\n            return  amountOutMins[path.length -1];\r\n             \r\n      }\r\n\r\n  function getSushiswapReserve(address _pairAddress) public view returns(uint, uint, uint){\r\n      (uint reserve1,uint reserve2,uint time)=IUniswapV2Pair(address(_pairAddress)).getReserves();\r\n     \r\n      return (reserve1,reserve2,time);\r\n\r\n  }\r\n\r\n     // for uniswap\r\n  function swapExactInputSingle(ISwapRouter _swapRouter,address _tokenIn, address _tokenOut,uint256 _amountIn) internal returns (uint256 amountOut) {\r\n      \r\n\r\n      // Transfer the specified amount of DAI to this contract.\r\n     // TransferHelper.safeTransferFrom(_tokenIn, msg.sender, address(this), _amountIn);\r\n\r\n      // Approve the router to spend DAI.\r\n      TransferHelper.safeApprove(_tokenIn, address(_swapRouter), _amountIn);\r\n        IERC20Minimal(_tokenIn).allowance(address(this), address(_swapRouter));\r\n      // Naively set amountOutMinimum to 0. In production, use an oracle or other data source to choose a safer value for amountOutMinimum.\r\n      // We also set the sqrtPriceLimitx96 to be 0 to ensure we swap our exact input amount.\r\n      ISwapRouter.ExactInputSingleParams memory params =\r\n          ISwapRouter.ExactInputSingleParams({\r\n              tokenIn: _tokenIn,\r\n              tokenOut: _tokenOut,\r\n              fee: poolFee,\r\n              recipient: address(this),\r\n              deadline: block.timestamp + deadline,\r\n              amountIn:_amountIn,\r\n              amountOutMinimum:0,\r\n              sqrtPriceLimitX96: 0\r\n          });\r\n\r\n      // The call to `exactInputSingle` executes the swap.\r\n      amountOut = _swapRouter.exactInputSingle(params);\r\n  }\r\n      // for sushiswap\r\n  \r\n\tfunction SushiswapToken(address _router, address _tokenIn, address _tokenOut, uint256 _amountIn) private {\r\n\t   TransferHelper.safeApprove(_tokenIn, address(_router), _amountIn);\r\n        IERC20Minimal(_tokenIn).allowance(address(this), address(_router));\r\n\t\taddress[] memory path;\r\n\t\tpath = new address[](2);\r\n\t\tpath[0] = _tokenIn;\r\n\t\tpath[1] = _tokenOut;\r\n      \r\n\t\r\n\t\tIUniswapV2Router02(_router).swapExactTokensForETH(_amountIn,0, path, address(this), block.timestamp + deadline);\r\n\t}\r\n    function swapToken(address _router, address _tokenIn, address _tokenOut, uint256 _amountIn) private {\r\n\t\tIERC20Minimal(_tokenIn).approve(_router, _amountIn);\r\n\t\taddress[] memory path;\r\n\t\tpath = new address[](2);\r\n\t\tpath[0] = _tokenIn;\r\n\t\tpath[1] = _tokenOut;\r\n\t\r\n\t\tIUniswapV2Router02(_router).swapExactTokensForTokens(_amountIn, getAmountOutMin(_router,_tokenIn,_tokenOut,_amountIn), path, address(this), block.timestamp + deadline);\r\n\t}\r\n\r\n   function UniswapToSushiwapTrade(address _token1, address _token2) external onlyOwner {\r\n        uint startBalance = IERC20Minimal(_token1).balanceOf(address(this));\r\n        uint token2InitialBalance = IERC20Minimal(_token2).balanceOf(address(this));\r\n        \r\n        swapExactInputSingle(swapRouter,_token1, _token2,startBalance);\r\n        uint token2Balance = IERC20Minimal(_token2).balanceOf(address(this));\r\n        uint tradeableAmount = token2Balance - token2InitialBalance;\r\n        swapToken(Router2,_token2, _token1,tradeableAmount);\r\n        uint endBalance = IERC20Minimal(_token1).balanceOf(address(this));\r\n      // require(endBalance > startBalance, \"Trade Reverted, No Profit Made\");\r\n       profit= endBalance -startBalance;\r\n       emit TradeSucces(assest,base,profit,true);\r\n   }\r\n    function SushiwapToUniswapTrade(address _token1, address _token2) external onlyOwner {\r\n        uint startBalance = IERC20Minimal(_token1).balanceOf(address(this));\r\n        uint token2InitialBalance = IERC20Minimal(_token2).balanceOf(address(this));\r\n        \r\n        SushiswapToken(Router2,_token1, _token2, startBalance);\r\n        uint token2Balance = IERC20Minimal(_token2).balanceOf(address(this));\r\n        uint tradeableAmount = token2Balance - token2InitialBalance;\r\n       swapExactInputSingle(swapRouter,_token2, _token1,tradeableAmount);\r\n        uint endBalance = IERC20Minimal(_token1).balanceOf(address(this));\r\n      // require(endBalance > startBalance, \"Trade Reverted, No Profit Made\");\r\n       profit= endBalance -startBalance;\r\n       emit TradeSucces(assest,base,profit,true);\r\n   }\r\n\r\n     function getBalance (address _tokenContractAddress) external view  returns (uint256) {\r\n\t\tuint balance = IERC20Minimal(_tokenContractAddress).balanceOf(address(this));\r\n\t\treturn balance;\r\n\t}\r\n\t\tfunction recoverEth() external onlyOwner {\r\n\t\tpayable(msg.sender).transfer(address(this).balance);\r\n\t}\r\n    \r\n    \r\n\tfunction recoverTokens(address tokenAddress) external onlyOwner {\r\n\t     IERC20Minimal token = IERC20Minimal(tokenAddress);\r\n\t\ttoken.transfer(msg.sender, token.balanceOf(address(this)));\r\n     \t}\r\n   \r\n     receive ()  payable external{\r\n      _balance[msg.sender] += msg.value;\r\n\r\n    }\r\n\r\n\r\n\r\n}",
  "sourcePath": "C:\\Users\\user\\Desktop\\web dev\\arbBot\\contracts\\arbitragebot.sol",
  "compiler": {
    "name": "solc",
    "version": "0.8.16+commit.07a7930e.Emscripten.clang"
  },
  "schemaVersion": "3.4.9",
  "updatedAt": "2022-09-05T13:46:58.997Z",
  "devdoc": {
    "kind": "dev",
    "methods": {},
    "version": 1
  },
  "userdoc": {
    "kind": "user",
    "methods": {},
    "version": 1
  }
}